:020000040000FA
:10000000200220206D01000071010000730100003A
:1000100000000000000000000000000000000000E0
:10002000000000000000000000000000750100005A
:1000300000000000000000007701000079010000CE
:100040007B0100007B0100007B0100007B010000C0
:100050007B0100007B0100007B0100007B010000B0
:10006000000000007B0100007B0100000000000098
:10007000000000007B0100007B0100007B0100000C
:100080007B0100007B0100007B0100007B01000080
:100090007B0100007B010000000000000000000068
:1000A0007B0100007B010000000000000000000058
:1000B0007B010000000000007B0100007B010000CC
:1000C00000F002F800F042F812A030C808382418F6
:1000D0002D18AC4201D100F039F80FCCA246AB4646
:1000E0000CA730CF2D1B083F3F197C427F1E544484
:1000F0002D090426F441641EAC4201D300F026F819
:100100000126334200D0FB1A3343984754465D46DC
:10011000DFE70000E4060000F40600000000000035
:100120007047000000000000002300240025002686
:10013000103A01D378C1FBD8520700D330C100D5A3
:100140000B6070471FB51FBD10B510BD00F027F83C
:100150001146FFF7F7FF00F039FB00F03FF803B45A
:10016000FFF7F2FF03BC00F045F800000648004727
:10017000FEE7FEE7FEE7FEE7FEE7FEE70348044989
:10018000024A044B70470000C100000020012020FB
:1001900020022020200120207047704770477546BC
:1001A00000F024F8AE46050069465346C008C0007A
:1001B000854618B020B5FFF7E1FF60BCB6460026C3
:1001C0000027C0C5C0C5C0C5C0C5C0C5C0C5C0C565
:1001D000C0C5403D490849008D46704710B50446EA
:1001E000C046C0462046FFF7BAFF10BD0048704722
:1001F0000000202001491820ABBEFEE726000200C7
:100200007047811E091F00BFFCD2704784B0039065
:100210000291019203980068009000980199884328
:10022000009000980299019A1140084303990860D0
:1002300004B0704782B00190009100980199952216
:100240005201885002B0704782B00190009100982E
:10025000019995225201885002B0704782B00190F6
:10026000009100980199024A885002B07047C04638
:10027000D012000081B0009000990120C2024448D1
:10028000885001B07047C04681B00090009881004E
:10029000084A8120885001B07047C04682B0019062
:1002A000009100988021084301998900014A8850F3
:1002B00002B070470480424081B0009000997C4AAF
:1002C0007C48885001B0704782B00190009100983E
:1002D0000199024A885002B07047C046901200004F
:1002E000064908680122904308607047034908687E
:1002F00001221202904308607047C04608010B407B
:1003000081B001466846017000780249086001B07A
:100310007047C04608030B4080B582B0014601A873
:10032000017001780F480F22FFF770FF02B080BD07
:1003300080B582B0014601A801700178024803220D
:10034000FFF764FF02B080BD00010B4080B582B0B2
:10035000014601A80170017802483022FFF756FFDC
:1003600002B080BD04010B4081B000900099024AA8
:100370000120885001B070470811000081B0009042
:1003800000990120C2020248885001B07047C0465F
:1003900001000026F0B5724A82183B4BC318087959
:1003A0004E793A4D3A4C002E23D0202804D0052611
:1003B000F601002803D003E0364E002800D188263D
:1003C000576F2F4037435767976F2F4037439767D3
:1003D000566B26405663966B2640966300265665FC
:1003E00096658F26F6435F6837405F609F683740A9
:1003F0009F608E79096820280BD0002819D1491EEA
:100400005160D76E2F4088210F43D766174670374B
:1004100019E0491E5160D16E29401E4F3943D16603
:10042000116F294039431167012149071A4D1746B9
:1004300009E049085160D76E2F400521C9010F43DB
:10044000D766174670373C682C400C433C60D16A35
:100450000F4C2140D162116B214011630021D16406
:1004600011658F21C943D46F0C40D4671C680C40C0
:100470001C600643BD2030401168084B0B40C0187B
:10048000801C1060F0BDC0468418000024493E0066
:100490008888FDFF01040000FFFFFFCF4000FFCF71
:1004A00081B000900099024A0248885001B070471C
:1004B00004080000030000B182B001900091009890
:1004C000019911221202885002B0704710B507231B
:1004D0009B04194092008018024A84589C4361187A
:1004E000815010BD3018000010B5029CA400001906
:1004F00011431943014A815010BDC04650180000F5
:1005000092008018014A81507047C04610180000C0
:1005100010B50122120383180C789C604B7883502D
:100520008978014A815010BD0C11000010B586B0C9
:1005300001930B4601460198059104A90B8003AB7A
:100540001A8002AA10800598054C001909881B889A
:10055000194312881143034AFFF758FE06B010BD35
:100560000418000080FF000080B586B00020042140
:100570000291FFF793FE5348039001210191FFF789
:100580006DFE01980299FFF789FE03980221FFF79B
:1005900065FE0B20FFF778FE1820FFF775FEFF21A0
:1005A0000231059185480490FFF744FE04980599AF
:1005B000FFF754FE06B080BD80B584B01E49804868
:1005C0000390FFF7A5FF03981C49FFF7E3FE03988C
:1005D0000023019319461A46FFF7A8FF019B0398D1
:1005E000009319461A46FFF77FFF019A03981146B8
:1005F000FFF76CFF019A03981146FFF781FF019BFB
:10060000039801210291009119461A46FFF76CFFE9
:100610000199029A0398FFF759FF0199029A0398EA
:10062000FFF76EFF0398FFF79FFE03980321FFF784
:1006300043FF04B080BDC046EA070000F007000099
:1006400080B582B000200190FFF75AFE0198FFF7B5
:100650006FFEFFF745FEFFF749FE0198FFF776FEB4
:100660000198FFF759FE02B080BD000080B500F090
:100670000DF8FFF779FFFFF7E3FFFFF79DFF024952
:10068000B8220020885480BD6000202080B584B04E
:100690000C480190FFF710FE48480290FFF70CFE4F
:1006A00047480390FFF7FCFE0198FFF7E3FD02982F
:1006B000FFF7E0FD0398FFF761FE1020FFF7A1FDB3
:1006C00004B080BD00000A4080B584B003903A4871
:1006D000029003980299884203DDFFE70298019097
:1006E0000FE0039802994942884204DAFFE7029832
:1006F0004042009002E003980090FFE700980190CC
:10070000FFE701980390039800280AD4FFE72B48DD
:100710000121FFF799FD039929480022FFF7F0FE18
:100720000AE026480121FFF7CFFD03984142244803
:100730000022FFF7E5FEFFE704B080BD80B586B07C
:1007400005901D48049005980499884203DDFFE751
:10075000049803900FE0059804994942884204DA0E
:10076000FFE704984042029002E005980290FFE7FC
:1007700002980390FFE703980590059800280CD491
:10078000FFE70120019001020C48FFF75DFD019A8F
:1007900005990B48FFF7B4FE0CE001200090010220
:1007A0000648FFF791FD009A059841420448FFF77B
:1007B000A7FEFFE706B080BD3708000000200A4012
:1007C0000000864080B5FFF751FF80BD80B582B044
:1007D00000200190FFF7F6FF64200090FFF774FF00
:1007E0000098FFF7ABFFFFE7FEE7080000000000FE
:1007F000550800002001010008080000000020202A
:080800002002000028010000A5
:04000005000000C136
:00000001FF
